:1000000012C019C018C017C016C015C014C013C044
:1000100012C011C010C00FC00EC00DC00CC00BC06C
:100020000AC009C008C011241FBECFE5D4E0DEBF5E
:10003000CDBF02D026C0E4CF87E087BB20E030E010
:1000400081E041E050E088BB843028F4813049F4FD
:100050002130310531F4942F232B09F0952F292FCE
:1000600030E02115310511F4880F01C086956FEF3E
:1000700070E792E0615070409040E1F700C00000EE
:06008000E2CFF894FFCF6F
:00000001FF
